{
  "transactions": [
    {
      "hash": "0x67f4165230e85016699130e06f7c018092651c87bfc10047a34b60595365be8b",
      "transactionType": "CALL",
      "contractName": null,
      "contractAddress": "0x7124f139a67b393380c5a705653ee30d882ada5a",
      "function": "mint(uint256)",
      "arguments": [
        "1"
      ],
      "transaction": {
        "from": "0x023c6911c69b6c0e70a76c27b23fe1a32b08bf98",
        "to": "0x7124f139a67b393380c5a705653ee30d882ada5a",
        "gas": "0x47ed0",
        "value": "0x1c6bf52634000",
        "input": "0xa0712d680000000000000000000000000000000000000000000000000000000000000001",
        "nonce": "0x20",
        "chainId": "0xaa36a7"
      },
      "additionalContracts": [],
      "isFixedGasLimit": false
    }
  ],
  "receipts": [
    {
      "status": "0x1",
      "cumulativeGasUsed": "0x3f2db5",
      "logs": [
        {
          "address": "0x7124f139a67b393380c5a705653ee30d882ada5a",
          "topics": [
            "0xddf252ad1be2c89b69c2b068fc378daa952ba7f163c4a11628f55a4df523b3ef",
            "0x0000000000000000000000000000000000000000000000000000000000000000",
            "0x000000000000000000000000023c6911c69b6c0e70a76c27b23fe1a32b08bf98",
            "0x0000000000000000000000000000000000000000000000000000000000000001"
          ],
          "data": "0x",
          "blockHash": "0x5a635e29a2a7cae0749b43e45890a8add51719c796d83289eb9969b4685590cd",
          "blockNumber": "0x956199",
          "blockTimestamp": "0x6935aabc",
          "transactionHash": "0x67f4165230e85016699130e06f7c018092651c87bfc10047a34b60595365be8b",
          "transactionIndex": "0x1b",
          "logIndex": "0x18",
          "removed": false
        },
        {
          "address": "0x7124f139a67b393380c5a705653ee30d882ada5a",
          "topics": [
            "0xf8e1a15aba9398e019f0b49df1a4fde98ee17ae345cb5f6b5e2c27f5033e8ce7"
          ],
          "data": "0x0000000000000000000000000000000000000000000000000000000000000001",
          "blockHash": "0x5a635e29a2a7cae0749b43e45890a8add51719c796d83289eb9969b4685590cd",
          "blockNumber": "0x956199",
          "blockTimestamp": "0x6935aabc",
          "transactionHash": "0x67f4165230e85016699130e06f7c018092651c87bfc10047a34b60595365be8b",
          "transactionIndex": "0x1b",
          "logIndex": "0x19",
          "removed": false
        }
      ],
      "logsBloom": "0x00000000000000000000080000000000000000000000000000000000000000000000000000000000000000000000000000000000000000000000000000040000000000000000000000000008000000000000000000040000000000000040000000000040020000000000000000000800000000000000000000000010000000000000000000000000000000000000000000080000000000000000000000000000000000000000000000000000000000002000000000000000000000000800008000000002000000000000800000000000000000000000000000000000000060000000000000000000200000000000000000000000000000000000000000000000",
      "type": "0x2",
      "transactionHash": "0x67f4165230e85016699130e06f7c018092651c87bfc10047a34b60595365be8b",
      "transactionIndex": "0x1b",
      "blockHash": "0x5a635e29a2a7cae0749b43e45890a8add51719c796d83289eb9969b4685590cd",
      "blockNumber": "0x956199",
      "gasUsed": "0x312e2",
      "effectiveGasPrice": "0x812e219",
      "from": "0x023c6911c69b6c0e70a76c27b23fe1a32b08bf98",
      "to": "0x7124f139a67b393380c5a705653ee30d882ada5a",
      "contractAddress": null
    }
  ],
  "libraries": [],
  "pending": [],
  "returns": {},
  "timestamp": 1765124795745,
  "chain": 11155111,
  "commit": null
}