{
  "transactions": [
    {
      "hash": "0x62e4e8e2b165f75f47b5fc32c3c8fb8d2232c0f365736dfd1616564760069bda",
      "transactionType": "CALL",
      "contractName": null,
      "contractAddress": "0xdcd169ca4ab081c1b926dc56430ada8fe1e10a64",
      "function": "mint(uint256)",
      "arguments": [
        "1"
      ],
      "transaction": {
        "from": "0x023c6911c69b6c0e70a76c27b23fe1a32b08bf98",
        "to": "0xdcd169ca4ab081c1b926dc56430ada8fe1e10a64",
        "gas": "0x4dc6b",
        "value": "0x1c6bf52634000",
        "input": "0xa0712d680000000000000000000000000000000000000000000000000000000000000001",
        "nonce": "0x15",
        "chainId": "0xaa36a7"
      },
      "additionalContracts": [],
      "isFixedGasLimit": false
    }
  ],
  "receipts": [
    {
      "status": "0x1",
      "cumulativeGasUsed": "0x8158bb",
      "logs": [
        {
          "address": "0xdcd169ca4ab081c1b926dc56430ada8fe1e10a64",
          "topics": [
            "0xddf252ad1be2c89b69c2b068fc378daa952ba7f163c4a11628f55a4df523b3ef",
            "0x0000000000000000000000000000000000000000000000000000000000000000",
            "0x000000000000000000000000023c6911c69b6c0e70a76c27b23fe1a32b08bf98",
            "0x0000000000000000000000000000000000000000000000000000000000000000"
          ],
          "data": "0x",
          "blockHash": "0x7771f08df179f3d4e5028be14ac6e0b03301c2dd816313fc18f59b4b7e15be39",
          "blockNumber": "0x954656",
          "blockTimestamp": "0x693462f0",
          "transactionHash": "0x62e4e8e2b165f75f47b5fc32c3c8fb8d2232c0f365736dfd1616564760069bda",
          "transactionIndex": "0x3d",
          "logIndex": "0xee",
          "removed": false
        },
        {
          "address": "0xdcd169ca4ab081c1b926dc56430ada8fe1e10a64",
          "topics": [
            "0xf8e1a15aba9398e019f0b49df1a4fde98ee17ae345cb5f6b5e2c27f5033e8ce7"
          ],
          "data": "0x0000000000000000000000000000000000000000000000000000000000000000",
          "blockHash": "0x7771f08df179f3d4e5028be14ac6e0b03301c2dd816313fc18f59b4b7e15be39",
          "blockNumber": "0x954656",
          "blockTimestamp": "0x693462f0",
          "transactionHash": "0x62e4e8e2b165f75f47b5fc32c3c8fb8d2232c0f365736dfd1616564760069bda",
          "transactionIndex": "0x3d",
          "logIndex": "0xef",
          "removed": false
        }
      ],
      "logsBloom": "0x00000000000000000000000000000000000000000000000000000000000000000000000000000000000000000000000000000000000000000000000000000000040000000000000000000008000000000000000000000000000000000040000000000000020000000000000000000800000000000000000000000010000000000000000000004000000000000000000000080000000000000000000000000000000000000000000000000000000000002000000000000000080000000800008000000002000000000000000000000000000000000000000000000000000020000000000000000000200000000000000000000000000000000000000000000000",
      "type": "0x2",
      "transactionHash": "0x62e4e8e2b165f75f47b5fc32c3c8fb8d2232c0f365736dfd1616564760069bda",
      "transactionIndex": "0x3d",
      "blockHash": "0x7771f08df179f3d4e5028be14ac6e0b03301c2dd816313fc18f59b4b7e15be39",
      "blockNumber": "0x954656",
      "gasUsed": "0x352e3",
      "effectiveGasPrice": "0xf9d95",
      "from": "0x023c6911c69b6c0e70a76c27b23fe1a32b08bf98",
      "to": "0xdcd169ca4ab081c1b926dc56430ada8fe1e10a64",
      "contractAddress": null
    }
  ],
  "libraries": [],
  "pending": [],
  "returns": {},
  "timestamp": 1765040882572,
  "chain": 11155111,
  "commit": null
}