{
  "transactions": [
    {
      "hash": "0x2f74cfa1b95dd9f39ebfc9bd0b25dcc463cc04bafc7732a590f1f86992a6f0bf",
      "transactionType": "CALL",
      "contractName": null,
      "contractAddress": "0xc42952b839da535485c7ea12c46c5650f7e6cf63",
      "function": "mint(uint256)",
      "arguments": [
        "1"
      ],
      "transaction": {
        "from": "0x023c6911c69b6c0e70a76c27b23fe1a32b08bf98",
        "to": "0xc42952b839da535485c7ea12c46c5650f7e6cf63",
        "gas": "0x4dc6b",
        "value": "0x1c6bf52634000",
        "input": "0xa0712d680000000000000000000000000000000000000000000000000000000000000001",
        "nonce": "0x18",
        "chainId": "0xaa36a7"
      },
      "additionalContracts": [],
      "isFixedGasLimit": false
    }
  ],
  "receipts": [
    {
      "status": "0x1",
      "cumulativeGasUsed": "0x28e5e98",
      "logs": [
        {
          "address": "0xc42952b839da535485c7ea12c46c5650f7e6cf63",
          "topics": [
            "0xddf252ad1be2c89b69c2b068fc378daa952ba7f163c4a11628f55a4df523b3ef",
            "0x0000000000000000000000000000000000000000000000000000000000000000",
            "0x000000000000000000000000023c6911c69b6c0e70a76c27b23fe1a32b08bf98",
            "0x0000000000000000000000000000000000000000000000000000000000000000"
          ],
          "data": "0x",
          "blockHash": "0xb3ace1083fc649f53aa37cc50f1f7f2344369ba6ed2d58fe215720095791f3e1",
          "blockNumber": "0x9546cb",
          "blockTimestamp": "0x6934686c",
          "transactionHash": "0x2f74cfa1b95dd9f39ebfc9bd0b25dcc463cc04bafc7732a590f1f86992a6f0bf",
          "transactionIndex": "0x3c",
          "logIndex": "0xbb",
          "removed": false
        },
        {
          "address": "0xc42952b839da535485c7ea12c46c5650f7e6cf63",
          "topics": [
            "0xf8e1a15aba9398e019f0b49df1a4fde98ee17ae345cb5f6b5e2c27f5033e8ce7"
          ],
          "data": "0x0000000000000000000000000000000000000000000000000000000000000000",
          "blockHash": "0xb3ace1083fc649f53aa37cc50f1f7f2344369ba6ed2d58fe215720095791f3e1",
          "blockNumber": "0x9546cb",
          "blockTimestamp": "0x6934686c",
          "transactionHash": "0x2f74cfa1b95dd9f39ebfc9bd0b25dcc463cc04bafc7732a590f1f86992a6f0bf",
          "transactionIndex": "0x3c",
          "logIndex": "0xbc",
          "removed": false
        }
      ],
      "logsBloom": "0x00000000000000000000000000000000020000000000000000000000000000000000000000080000000000000000000000000000000000000000000000000000000000000000000000000008000000000000000000000000000000000040000000000000020000400000000000000800000000000000000000000010000000000000000000000000000000000000000000080000000000000000000000000000000000000000000000000000000000002000000000000000000000000800008000000002000000000000000000000000000000000000000000000000000020000000000000000000200000000000000000000000000000000000000000000000",
      "type": "0x2",
      "transactionHash": "0x2f74cfa1b95dd9f39ebfc9bd0b25dcc463cc04bafc7732a590f1f86992a6f0bf",
      "transactionIndex": "0x3c",
      "blockHash": "0xb3ace1083fc649f53aa37cc50f1f7f2344369ba6ed2d58fe215720095791f3e1",
      "blockNumber": "0x9546cb",
      "gasUsed": "0x352e3",
      "effectiveGasPrice": "0x1e9fd5",
      "from": "0x023c6911c69b6c0e70a76c27b23fe1a32b08bf98",
      "to": "0xc42952b839da535485c7ea12c46c5650f7e6cf63",
      "contractAddress": null
    }
  ],
  "libraries": [],
  "pending": [],
  "returns": {},
  "timestamp": 1765042284090,
  "chain": 11155111,
  "commit": null
}