{
  "transactions": [
    {
      "hash": "0x0a8566cbcff20154cfb7ba1bd981e7b063278291e2694434edfabb202ffc90ee",
      "transactionType": "CALL",
      "contractName": null,
      "contractAddress": "0x7bd08ca5cbd52ed3cdf6a8833cfe67610d2990d4",
      "function": "mint(uint256)",
      "arguments": [
        "1"
      ],
      "transaction": {
        "from": "0x023c6911c69b6c0e70a76c27b23fe1a32b08bf98",
        "to": "0x7bd08ca5cbd52ed3cdf6a8833cfe67610d2990d4",
        "gas": "0x4dc6b",
        "value": "0x1c6bf52634000",
        "input": "0xa0712d680000000000000000000000000000000000000000000000000000000000000001",
        "nonce": "0x12",
        "chainId": "0xaa36a7"
      },
      "additionalContracts": [],
      "isFixedGasLimit": false
    }
  ],
  "receipts": [
    {
      "status": "0x1",
      "cumulativeGasUsed": "0x76e528",
      "logs": [
        {
          "address": "0x7bd08ca5cbd52ed3cdf6a8833cfe67610d2990d4",
          "topics": [
            "0xddf252ad1be2c89b69c2b068fc378daa952ba7f163c4a11628f55a4df523b3ef",
            "0x0000000000000000000000000000000000000000000000000000000000000000",
            "0x000000000000000000000000023c6911c69b6c0e70a76c27b23fe1a32b08bf98",
            "0x0000000000000000000000000000000000000000000000000000000000000000"
          ],
          "data": "0x",
          "blockHash": "0x795d21fd3a60ea08221d177dda1dff779884da0668567fb5f64c8d999164bd09",
          "blockNumber": "0x953bd5",
          "blockTimestamp": "0x6933e484",
          "transactionHash": "0x0a8566cbcff20154cfb7ba1bd981e7b063278291e2694434edfabb202ffc90ee",
          "transactionIndex": "0x32",
          "logIndex": "0xe0",
          "removed": false
        },
        {
          "address": "0x7bd08ca5cbd52ed3cdf6a8833cfe67610d2990d4",
          "topics": [
            "0xf8e1a15aba9398e019f0b49df1a4fde98ee17ae345cb5f6b5e2c27f5033e8ce7"
          ],
          "data": "0x0000000000000000000000000000000000000000000000000000000000000000",
          "blockHash": "0x795d21fd3a60ea08221d177dda1dff779884da0668567fb5f64c8d999164bd09",
          "blockNumber": "0x953bd5",
          "blockTimestamp": "0x6933e484",
          "transactionHash": "0x0a8566cbcff20154cfb7ba1bd981e7b063278291e2694434edfabb202ffc90ee",
          "transactionIndex": "0x32",
          "logIndex": "0xe1",
          "removed": false
        }
      ],
      "logsBloom": "0x00000000000000000000000000000000000000000000000000000000000000000000000000000000000000000000000000000000000000000000000000000000000001000000000000000008000000000000000000000000004000000040000000000000020000000000000000000800000000000000000000000010000000000000000000000000000000000000000000080000000000000000000000000000000000000000000000000000000000002000000000000000000000000800008000000002000000000000000000000000000000000000000000040000000020000000000000000000200000000000000000000000000000000000000000000000",
      "type": "0x2",
      "transactionHash": "0x0a8566cbcff20154cfb7ba1bd981e7b063278291e2694434edfabb202ffc90ee",
      "transactionIndex": "0x32",
      "blockHash": "0x795d21fd3a60ea08221d177dda1dff779884da0668567fb5f64c8d999164bd09",
      "blockNumber": "0x953bd5",
      "gasUsed": "0x352e3",
      "effectiveGasPrice": "0xf4248",
      "from": "0x023c6911c69b6c0e70a76c27b23fe1a32b08bf98",
      "to": "0x7bd08ca5cbd52ed3cdf6a8833cfe67610d2990d4",
      "contractAddress": null
    }
  ],
  "libraries": [],
  "pending": [],
  "returns": {},
  "timestamp": 1765008516879,
  "chain": 11155111,
  "commit": null
}