{
  "transactions": [
    {
      "hash": "0x4b8cf9a7160e52e55b8ef05d0a4447504a9b953c3ec3b0339d5c499418f4e0e5",
      "transactionType": "CALL",
      "contractName": null,
      "contractAddress": "0x7124f139a67b393380c5a705653ee30d882ada5a",
      "function": "mint(uint256)",
      "arguments": [
        "1"
      ],
      "transaction": {
        "from": "0x023c6911c69b6c0e70a76c27b23fe1a32b08bf98",
        "to": "0x7124f139a67b393380c5a705653ee30d882ada5a",
        "gas": "0x4dc6b",
        "value": "0x1c6bf52634000",
        "input": "0xa0712d680000000000000000000000000000000000000000000000000000000000000001",
        "nonce": "0x1b",
        "chainId": "0xaa36a7"
      },
      "additionalContracts": [],
      "isFixedGasLimit": false
    }
  ],
  "receipts": [
    {
      "status": "0x1",
      "cumulativeGasUsed": "0x6afc7c",
      "logs": [
        {
          "address": "0x7124f139a67b393380c5a705653ee30d882ada5a",
          "topics": [
            "0xddf252ad1be2c89b69c2b068fc378daa952ba7f163c4a11628f55a4df523b3ef",
            "0x0000000000000000000000000000000000000000000000000000000000000000",
            "0x000000000000000000000000023c6911c69b6c0e70a76c27b23fe1a32b08bf98",
            "0x0000000000000000000000000000000000000000000000000000000000000000"
          ],
          "data": "0x",
          "blockHash": "0xc0342a0107414f13bcff47ebab73f3ab5d08d9cb506c5440f9af36cebb3d118e",
          "blockNumber": "0x955d54",
          "blockTimestamp": "0x69357768",
          "transactionHash": "0x4b8cf9a7160e52e55b8ef05d0a4447504a9b953c3ec3b0339d5c499418f4e0e5",
          "transactionIndex": "0x4b",
          "logIndex": "0x57",
          "removed": false
        },
        {
          "address": "0x7124f139a67b393380c5a705653ee30d882ada5a",
          "topics": [
            "0xf8e1a15aba9398e019f0b49df1a4fde98ee17ae345cb5f6b5e2c27f5033e8ce7"
          ],
          "data": "0x0000000000000000000000000000000000000000000000000000000000000000",
          "blockHash": "0xc0342a0107414f13bcff47ebab73f3ab5d08d9cb506c5440f9af36cebb3d118e",
          "blockNumber": "0x955d54",
          "blockTimestamp": "0x69357768",
          "transactionHash": "0x4b8cf9a7160e52e55b8ef05d0a4447504a9b953c3ec3b0339d5c499418f4e0e5",
          "transactionIndex": "0x4b",
          "logIndex": "0x58",
          "removed": false
        }
      ],
      "logsBloom": "0x00000000000000000000080000000000000000000000000000000000000000000000000000000000000000000000000000000000000000000000000000000000000000000000000000000008000000000000000000000000000000000040000000000040020000000000000000000800000000000000000000000010000000000000000000000000000000000000000000080000000000000000000000000000000000000000000000000000000000002000000000000000000000000800008000000002000000000000800000000000000000000000000000000000000020000000000000000000200000000000000000000000000000000000000000000000",
      "type": "0x2",
      "transactionHash": "0x4b8cf9a7160e52e55b8ef05d0a4447504a9b953c3ec3b0339d5c499418f4e0e5",
      "transactionIndex": "0x4b",
      "blockHash": "0xc0342a0107414f13bcff47ebab73f3ab5d08d9cb506c5440f9af36cebb3d118e",
      "blockNumber": "0x955d54",
      "gasUsed": "0x352e3",
      "effectiveGasPrice": "0xfa868",
      "from": "0x023c6911c69b6c0e70a76c27b23fe1a32b08bf98",
      "to": "0x7124f139a67b393380c5a705653ee30d882ada5a",
      "contractAddress": null
    }
  ],
  "libraries": [],
  "pending": [],
  "returns": {},
  "timestamp": 1765111655254,
  "chain": 11155111,
  "commit": null
}