{
  "transactions": [
    {
      "hash": "0x954aeb7befc23f3d7852f9e5fcbe7cd346726fe4348c18b75e4155cc6dde67f9",
      "transactionType": "CALL",
      "contractName": null,
      "contractAddress": "0x7bd08ca5cbd52ed3cdf6a8833cfe67610d2990d4",
      "function": "safeTransferFrom(address,address,uint256)",
      "arguments": [
        "0x023c6911c69b6c0E70A76C27b23fe1A32b08Bf98",
        "0x21BDd5d84E683e59DF1dd37765aEd32EE6AE0a6B",
        "0"
      ],
      "transaction": {
        "from": "0x023c6911c69b6c0e70a76c27b23fe1a32b08bf98",
        "to": "0x7bd08ca5cbd52ed3cdf6a8833cfe67610d2990d4",
        "gas": "0x14c00",
        "value": "0x0",
        "input": "0x42842e0e000000000000000000000000023c6911c69b6c0e70a76c27b23fe1a32b08bf9800000000000000000000000021bdd5d84e683e59df1dd37765aed32ee6ae0a6b0000000000000000000000000000000000000000000000000000000000000000",
        "nonce": "0x13",
        "chainId": "0xaa36a7"
      },
      "additionalContracts": [],
      "isFixedGasLimit": false
    }
  ],
  "receipts": [
    {
      "status": "0x1",
      "cumulativeGasUsed": "0xd1c834",
      "logs": [
        {
          "address": "0x7bd08ca5cbd52ed3cdf6a8833cfe67610d2990d4",
          "topics": [
            "0xddf252ad1be2c89b69c2b068fc378daa952ba7f163c4a11628f55a4df523b3ef",
            "0x000000000000000000000000023c6911c69b6c0e70a76c27b23fe1a32b08bf98",
            "0x00000000000000000000000021bdd5d84e683e59df1dd37765aed32ee6ae0a6b",
            "0x0000000000000000000000000000000000000000000000000000000000000000"
          ],
          "data": "0x",
          "blockHash": "0xcb503339c902dbee5caa4def3013026d5884e69d64c9aae7cf9ed198c5119726",
          "blockNumber": "0x953e9f",
          "blockTimestamp": "0x6934062c",
          "transactionHash": "0x954aeb7befc23f3d7852f9e5fcbe7cd346726fe4348c18b75e4155cc6dde67f9",
          "transactionIndex": "0x47",
          "logIndex": "0xae",
          "removed": false
        }
      ],
      "logsBloom": "0x00000000000000000000000000000000000000000000000000000000000000000000000000000000000000000000000000000000000000000000040000000000000001000000000000008008000000000000000000000000004000000040000000000000020000000000000000000800000000000000000000000010000000000000000000000000000000000000000000080000000000000000000000000000000000000000000000000000000000000000000000000000000800000800000000000002000000000000000000000000000000000000000000040000000020000000000000000000000000000000000000000000000000000000000000000000",
      "type": "0x2",
      "transactionHash": "0x954aeb7befc23f3d7852f9e5fcbe7cd346726fe4348c18b75e4155cc6dde67f9",
      "transactionIndex": "0x47",
      "blockHash": "0xcb503339c902dbee5caa4def3013026d5884e69d64c9aae7cf9ed198c5119726",
      "blockNumber": "0x953e9f",
      "gasUsed": "0xe303",
      "effectiveGasPrice": "0xf424a",
      "from": "0x023c6911c69b6c0e70a76c27b23fe1a32b08bf98",
      "to": "0x7bd08ca5cbd52ed3cdf6a8833cfe67610d2990d4",
      "contractAddress": null
    }
  ],
  "libraries": [],
  "pending": [],
  "returns": {},
  "timestamp": 1765017132894,
  "chain": 11155111,
  "commit": null
}