{
  "transactions": [
    {
      "hash": "0x668b970dea03326ef023dd04b5acea8c57822274189cc9eec45f4bc80765ba77",
      "transactionType": "CALL",
      "contractName": null,
      "contractAddress": "0x7124f139a67b393380c5a705653ee30d882ada5a",
      "function": "safeTransferFrom(address,address,uint256)",
      "arguments": [
        "0x023c6911c69b6c0E70A76C27b23fe1A32b08Bf98",
        "0x21BDd5d84E683e59DF1dd37765aEd32EE6AE0a6B",
        "0"
      ],
      "transaction": {
        "from": "0x023c6911c69b6c0e70a76c27b23fe1a32b08bf98",
        "to": "0x7124f139a67b393380c5a705653ee30d882ada5a",
        "gas": "0x14c00",
        "value": "0x0",
        "input": "0x42842e0e000000000000000000000000023c6911c69b6c0e70a76c27b23fe1a32b08bf9800000000000000000000000021bdd5d84e683e59df1dd37765aed32ee6ae0a6b0000000000000000000000000000000000000000000000000000000000000000",
        "nonce": "0x1c",
        "chainId": "0xaa36a7"
      },
      "additionalContracts": [],
      "isFixedGasLimit": false
    }
  ],
  "receipts": [
    {
      "status": "0x1",
      "cumulativeGasUsed": "0x6e413a",
      "logs": [
        {
          "address": "0x7124f139a67b393380c5a705653ee30d882ada5a",
          "topics": [
            "0xddf252ad1be2c89b69c2b068fc378daa952ba7f163c4a11628f55a4df523b3ef",
            "0x000000000000000000000000023c6911c69b6c0e70a76c27b23fe1a32b08bf98",
            "0x00000000000000000000000021bdd5d84e683e59df1dd37765aed32ee6ae0a6b",
            "0x0000000000000000000000000000000000000000000000000000000000000000"
          ],
          "data": "0x",
          "blockHash": "0xe9e73ead8e5d4c64b4857e8f70829125bc9ad1889c808e9a19671c3f831e8633",
          "blockNumber": "0x955d6a",
          "blockTimestamp": "0x69357870",
          "transactionHash": "0x668b970dea03326ef023dd04b5acea8c57822274189cc9eec45f4bc80765ba77",
          "transactionIndex": "0x31",
          "logIndex": "0x5c",
          "removed": false
        }
      ],
      "logsBloom": "0x00000000000000000000080000000000000000000000000000000000000000000000000000000000000000000000000000000000000000000000040000000000000000000000000000008008000000000000000000000000000000000040000000000040020000000000000000000800000000000000000000000010000000000000000000000000000000000000000000080000000000000000000000000000000000000000000000000000000000000000000000000000000800000800000000000002000000000000800000000000000000000000000000000000000020000000000000000000000000000000000000000000000000000000000000000000",
      "type": "0x2",
      "transactionHash": "0x668b970dea03326ef023dd04b5acea8c57822274189cc9eec45f4bc80765ba77",
      "transactionIndex": "0x31",
      "blockHash": "0xe9e73ead8e5d4c64b4857e8f70829125bc9ad1889c808e9a19671c3f831e8633",
      "blockNumber": "0x955d6a",
      "gasUsed": "0xe303",
      "effectiveGasPrice": "0xf8347",
      "from": "0x023c6911c69b6c0e70a76c27b23fe1a32b08bf98",
      "to": "0x7124f139a67b393380c5a705653ee30d882ada5a",
      "contractAddress": null
    }
  ],
  "libraries": [],
  "pending": [],
  "returns": {},
  "timestamp": 1765111918635,
  "chain": 11155111,
  "commit": null
}