{
  "transactions": [
    {
      "hash": "0xbc51213a602f35d7970a5886ad36882e90d8d4f9744babe577278253122704e7",
      "transactionType": "CALL",
      "contractName": null,
      "contractAddress": "0xc42952b839da535485c7ea12c46c5650f7e6cf63",
      "function": "safeTransferFrom(address,address,uint256)",
      "arguments": [
        "0x023c6911c69b6c0E70A76C27b23fe1A32b08Bf98",
        "0x21BDd5d84E683e59DF1dd37765aEd32EE6AE0a6B",
        "0"
      ],
      "transaction": {
        "from": "0x023c6911c69b6c0e70a76c27b23fe1a32b08bf98",
        "to": "0xc42952b839da535485c7ea12c46c5650f7e6cf63",
        "gas": "0x14c00",
        "value": "0x0",
        "input": "0x42842e0e000000000000000000000000023c6911c69b6c0e70a76c27b23fe1a32b08bf9800000000000000000000000021bdd5d84e683e59df1dd37765aed32ee6ae0a6b0000000000000000000000000000000000000000000000000000000000000000",
        "nonce": "0x19",
        "chainId": "0xaa36a7"
      },
      "additionalContracts": [],
      "isFixedGasLimit": false
    }
  ],
  "receipts": [
    {
      "status": "0x1",
      "cumulativeGasUsed": "0x30cfaa7",
      "logs": [
        {
          "address": "0xc42952b839da535485c7ea12c46c5650f7e6cf63",
          "topics": [
            "0xddf252ad1be2c89b69c2b068fc378daa952ba7f163c4a11628f55a4df523b3ef",
            "0x000000000000000000000000023c6911c69b6c0e70a76c27b23fe1a32b08bf98",
            "0x00000000000000000000000021bdd5d84e683e59df1dd37765aed32ee6ae0a6b",
            "0x0000000000000000000000000000000000000000000000000000000000000000"
          ],
          "data": "0x",
          "blockHash": "0x69ba37fee3dd79f52d19db1d53e918ce9ce7a23e7c899a5988cfea32c380266e",
          "blockNumber": "0x9546d6",
          "blockTimestamp": "0x693468f0",
          "transactionHash": "0xbc51213a602f35d7970a5886ad36882e90d8d4f9744babe577278253122704e7",
          "transactionIndex": "0x2b",
          "logIndex": "0x6b",
          "removed": false
        }
      ],
      "logsBloom": "0x00000000000000000000000000000000020000000000000000000000000000000000000000080000000000000000000000000000000000000000040000000000000000000000000000008008000000000000000000000000000000000040000000000000020000400000000000000800000000000000000000000010000000000000000000000000000000000000000000080000000000000000000000000000000000000000000000000000000000000000000000000000000800000800000000000002000000000000000000000000000000000000000000000000000020000000000000000000000000000000000000000000000000000000000000000000",
      "type": "0x2",
      "transactionHash": "0xbc51213a602f35d7970a5886ad36882e90d8d4f9744babe577278253122704e7",
      "transactionIndex": "0x2b",
      "blockHash": "0x69ba37fee3dd79f52d19db1d53e918ce9ce7a23e7c899a5988cfea32c380266e",
      "blockNumber": "0x9546d6",
      "gasUsed": "0xe303",
      "effectiveGasPrice": "0x1eda4a",
      "from": "0x023c6911c69b6c0e70a76c27b23fe1a32b08bf98",
      "to": "0xc42952b839da535485c7ea12c46c5650f7e6cf63",
      "contractAddress": null
    }
  ],
  "libraries": [],
  "pending": [],
  "returns": {},
  "timestamp": 1765042417522,
  "chain": 11155111,
  "commit": null
}