{
  "transactions": [
    {
      "hash": "0x39d8a94e648c3b2f5ae16355dfa63a608c9cac1095366368c8e6e4211b33a424",
      "transactionType": "CALL",
      "contractName": null,
      "contractAddress": "0xdcd169ca4ab081c1b926dc56430ada8fe1e10a64",
      "function": "safeTransferFrom(address,address,uint256)",
      "arguments": [
        "0x023c6911c69b6c0E70A76C27b23fe1A32b08Bf98",
        "0x21BDd5d84E683e59DF1dd37765aEd32EE6AE0a6B",
        "0"
      ],
      "transaction": {
        "from": "0x023c6911c69b6c0e70a76c27b23fe1a32b08bf98",
        "to": "0xdcd169ca4ab081c1b926dc56430ada8fe1e10a64",
        "gas": "0x14c00",
        "value": "0x0",
        "input": "0x42842e0e000000000000000000000000023c6911c69b6c0e70a76c27b23fe1a32b08bf9800000000000000000000000021bdd5d84e683e59df1dd37765aed32ee6ae0a6b0000000000000000000000000000000000000000000000000000000000000000",
        "nonce": "0x16",
        "chainId": "0xaa36a7"
      },
      "additionalContracts": [],
      "isFixedGasLimit": false
    }
  ],
  "receipts": [
    {
      "status": "0x1",
      "cumulativeGasUsed": "0x866e34",
      "logs": [
        {
          "address": "0xdcd169ca4ab081c1b926dc56430ada8fe1e10a64",
          "topics": [
            "0xddf252ad1be2c89b69c2b068fc378daa952ba7f163c4a11628f55a4df523b3ef",
            "0x000000000000000000000000023c6911c69b6c0e70a76c27b23fe1a32b08bf98",
            "0x00000000000000000000000021bdd5d84e683e59df1dd37765aed32ee6ae0a6b",
            "0x0000000000000000000000000000000000000000000000000000000000000000"
          ],
          "data": "0x",
          "blockHash": "0x7143b89cf61c705c7752c5d0e89b5c0706ae373a66c4ebfb0f74cc9fc027f9c4",
          "blockNumber": "0x95466d",
          "blockTimestamp": "0x69346404",
          "transactionHash": "0x39d8a94e648c3b2f5ae16355dfa63a608c9cac1095366368c8e6e4211b33a424",
          "transactionIndex": "0x36",
          "logIndex": "0xaa",
          "removed": false
        }
      ],
      "logsBloom": "0x00000000000000000000000000000000000000000000000000000000000000000000000000000000000000000000000000000000000000000000040000000000040000000000000000008008000000000000000000000000000000000040000000000000020000000000000000000800000000000000000000000010000000000000000000004000000000000000000000080000000000000000000000000000000000000000000000000000000000000000000000000000080800000800000000000002000000000000000000000000000000000000000000000000000020000000000000000000000000000000000000000000000000000000000000000000",
      "type": "0x2",
      "transactionHash": "0x39d8a94e648c3b2f5ae16355dfa63a608c9cac1095366368c8e6e4211b33a424",
      "transactionIndex": "0x36",
      "blockHash": "0x7143b89cf61c705c7752c5d0e89b5c0706ae373a66c4ebfb0f74cc9fc027f9c4",
      "blockNumber": "0x95466d",
      "gasUsed": "0xe303",
      "effectiveGasPrice": "0xf9d2d",
      "from": "0x023c6911c69b6c0e70a76c27b23fe1a32b08bf98",
      "to": "0xdcd169ca4ab081c1b926dc56430ada8fe1e10a64",
      "contractAddress": null
    }
  ],
  "libraries": [],
  "pending": [],
  "returns": {},
  "timestamp": 1765041157590,
  "chain": 11155111,
  "commit": null
}